{
    "_format": "hh-sol-artifact-1",
    "contractName": "PriceController",
    "sourceName": "contracts/PriceController/PriceController.sol",
    "abi": [
        {
            "inputs": [
                {
                    "internalType": "enum PaymentToken",
                    "name": "",
                    "type": "uint8"
                }
            ],
            "name": "contracts",
            "outputs": [
                {
                    "internalType": "contract PriceConsumer",
                    "name": "priceConsumer",
                    "type": "address"
                },
                {
                    "internalType": "contract IERC20",
                    "name": "tokenAddress",
                    "type": "address"
                }
            ],
            "stateMutability": "view",
            "type": "function"
        },
        {
            "inputs": [
                {
                    "internalType": "enum PaymentToken",
                    "name": "_token",
                    "type": "uint8"
                }
            ],
            "name": "getTokenData",
            "outputs": [
                {
                    "internalType": "contract PriceConsumer",
                    "name": "",
                    "type": "address"
                },
                {
                    "internalType": "contract IERC20",
                    "name": "",
                    "type": "address"
                }
            ],
            "stateMutability": "view",
            "type": "function"
        },
        {
            "inputs": [
                {
                    "internalType": "enum PaymentToken",
                    "name": "_paymentToken",
                    "type": "uint8"
                },
                {
                    "internalType": "uint256",
                    "name": "_amountUsd",
                    "type": "uint256"
                }
            ],
            "name": "getTokenPriceFromUsd",
            "outputs": [
                {
                    "internalType": "uint256",
                    "name": "",
                    "type": "uint256"
                }
            ],
            "stateMutability": "view",
            "type": "function"
        },
        {
            "inputs": [
                {
                    "internalType": "enum PaymentToken",
                    "name": "_token",
                    "type": "uint8"
                }
            ],
            "name": "isTokenSet",
            "outputs": [
                {
                    "internalType": "bool",
                    "name": "",
                    "type": "bool"
                }
            ],
            "stateMutability": "view",
            "type": "function"
        },
        {
            "inputs": [],
            "name": "owner",
            "outputs": [
                {
                    "internalType": "address",
                    "name": "",
                    "type": "address"
                }
            ],
            "stateMutability": "view",
            "type": "function"
        },
        {
            "inputs": [],
            "name": "setOwner",
            "outputs": [],
            "stateMutability": "nonpayable",
            "type": "function"
        },
        {
            "inputs": [
                {
                    "internalType": "enum PaymentToken",
                    "name": "_token",
                    "type": "uint8"
                },
                {
                    "internalType": "contract AggregatorV3Interface",
                    "name": "_aggregator",
                    "type": "address"
                },
                {
                    "internalType": "contract IERC20",
                    "name": "_tokenAddress",
                    "type": "address"
                }
            ],
            "name": "setToken",
            "outputs": [],
            "stateMutability": "nonpayable",
            "type": "function"
        }
    ],
    "bytecode": "0x608060405234801561001057600080fd5b50610933806100206000396000f3fe608060405234801561001057600080fd5b506004361061007d5760003560e01c80638da5cb5b1161005b5780638da5cb5b146100c7578063c9be609b146100f2578063effae5d114610113578063fc3eced01461014657600080fd5b806331a7745b1461008257806340caae06146100aa578063662bf573146100b4575b600080fd5b610095610090366004610514565b61017a565b60405190151581526020015b60405180910390f35b6100b26101c4565b005b6100b26100c236600461054e565b61022a565b6000546100da906001600160a01b031681565b6040516001600160a01b0390911681526020016100a1565b610105610100366004610597565b6103da565b6040519081526020016100a1565b610126610121366004610514565b61045f565b604080516001600160a01b039384168152929091166020830152016100a1565b610126610154366004610514565b600160208190526000918252604090912080549101546001600160a01b03918216911682565b6000806001818482811115610191576101916105c1565b60018111156101a2576101a26105c1565b81526020810191909152604001600020546001600160a01b0316141592915050565b6000546001600160a01b0316156102165760405162461bcd60e51b815260206004820152601160248201527013dddb995c88185b1c9958591e481cd95d607a1b60448201526064015b60405180910390fd5b600080546001600160a01b03191633179055565b6000546001600160a01b031633146102845760405162461bcd60e51b815260206004820152601760248201527f43616c6c6572206973206e6f7420746865206f776e6572000000000000000000604482015260640161020d565b6000600181858281111561029a5761029a6105c1565b60018111156102ab576102ab6105c1565b81526020810191909152604001600020546001600160a01b03161461030b5760405162461bcd60e51b8152602060048201526016602482015275151bdad95b8819185d1848185b1c9958591e481cd95d60521b604482015260640161020d565b604051806040016040528083604051610323906104f3565b6001600160a01b039091168152602001604051809103906000f08015801561034f573d6000803e3d6000fd5b506001600160a01b03168152602001826001600160a01b031681525060016000856001811115610381576103816105c1565b6001811115610392576103926105c1565b8152602080820192909252604001600020825181546001600160a01b03199081166001600160a01b039283161783559390920151600190910180549093169116179055505050565b6000806103e68461045f565b509050806001600160a01b0316638e15f4736040518163ffffffff1660e01b8152600401602060405180830381865afa158015610427573d6000803e3d6000fd5b505050506040513d601f19601f8201168201806040525081019061044b91906105d7565b61045590846105f0565b9150505b92915050565b60008060016000846001811115610478576104786105c1565b6001811115610489576104896105c1565b815260208101919091526040016000908120546001600160a01b03169060019085828111156104ba576104ba6105c1565b60018111156104cb576104cb6105c1565b815260208101919091526040016000206001015490946001600160a01b039091169350915050565b6102e88061061683390190565b80356002811061050f57600080fd5b919050565b60006020828403121561052657600080fd5b61052f82610500565b9392505050565b6001600160a01b038116811461054b57600080fd5b50565b60008060006060848603121561056357600080fd5b61056c84610500565b9250602084013561057c81610536565b9150604084013561058c81610536565b809150509250925092565b600080604083850312156105aa57600080fd5b6105b383610500565b946020939093013593505050565b634e487b7160e01b600052602160045260246000fd5b6000602082840312156105e957600080fd5b5051919050565b808202811582820484141761045957634e487b7160e01b600052601160045260246000fdfe60a060405234801561001057600080fd5b506040516102e83803806102e883398101604081905261002f91610040565b6001600160a01b0316608052610070565b60006020828403121561005257600080fd5b81516001600160a01b038116811461006957600080fd5b9392505050565b608051610258610090600039600081816074015260fe01526102586000f3fe608060405234801561001057600080fd5b50600436106100365760003560e01c8063313ce5671461003b5780638e15f4731461005a575b600080fd5b610043610070565b60405160ff90911681526020015b60405180910390f35b6100626100f9565b604051908152602001610051565b60007f00000000000000000000000000000000000000000000000000000000000000006001600160a01b031663313ce5676040518163ffffffff1660e01b8152600401602060405180830381865afa1580156100d0573d6000803e3d6000fd5b505050506040513d601f19601f820116820180604052508101906100f49190610189565b905090565b6000807f00000000000000000000000000000000000000000000000000000000000000006001600160a01b031663feaf968c6040518163ffffffff1660e01b815260040160a060405180830381865afa15801561015a573d6000803e3d6000fd5b505050506040513d601f19601f8201168201806040525081019061017e91906101d2565b509195945050505050565b60006020828403121561019b57600080fd5b815160ff811681146101ac57600080fd5b9392505050565b805169ffffffffffffffffffff811681146101cd57600080fd5b919050565b600080600080600060a086880312156101ea57600080fd5b6101f3866101b3565b9450602086015193506040860151925060608601519150610216608087016101b3565b9050929550929590935056fea2646970667358221220033f87fa205b7c83c25cc08a8ca3e6803b591e95af035b34b27a2b35cb0efd8f64736f6c63430008120033a26469706673582212200e7dc54567db715ae7f2e3cfd1b6c4ff17c10459a0cf45200ceb52ebdfbaf77c64736f6c63430008120033",
    "linkReferences": {},
    "deployedLinkReferences": {}
}